:10009A00FFFFFFFFFFFFFFFFFFFFFFFFFFFFFFFF66
:1000AA00FFFFFFFFFFFFFFFFFFFFFFFFFFFFFFFF56
:1000BA00FFFFFFFFFFFFFFFFFFFFFFFFFFFFFFFF46
:1000CA00FFFFFFFFFFFFFFFFFFFFFFFFFFFFFFFF36
:1000DA00E0E1E2E3E4E5E6E7E8E9EAEBECEDEEEF9E
:1000EA00D0D1D2D3D4D5D6D7D8D9DADBDCDDDEDF8E
:1000FA00B0B1B2B3B4B5B6B7B8B9BABBBCBDBEBF7E
:10010A00707172737475767778797A7B7C7D7E7F6D
:07000300010C00020A0000DD
:10011A00D2AF75080075094012018412017120B02E
:10012A000375C760D3E50B9509E50A95084005E410
:10013A00F50AF50BE50C9000DA93F580E50C250B32
:08014A0090009A93F59080D615
:0B018400E4F593F594F5917592FF22CD
:10017100438E805389F0758A5C758CF7C28DD2A944
:03018100D28C22FB
:03000B000201529D
:10015200C0E0C0D0C28C050CE50CD3943F400375BF
:0F0162000C007590007580FFD28CD0D0D0E032A9
:0300000002000EED
:0C000E00787FE4F6D8FD75810C020055E7
:10001A0002011AE493A3F8E493A34003F68001F2E1
:10002A0008DFF48029E493A3F85407240CC8C333E7
:10003A00C4540F4420C8834004F456800146F6DFB6
:10004A00E4800B0102040810204080900003E47E43
:10005A00019360BCA3FF543F30E509541FFEE493AB
:10006A00A360010ECF54C025E060A840B8E493A372
:10007A00FAE493A3F8E493A3C8C582C8CAC583CA9D
:10008A00F0A3C8C582C8CAC583CADFE9DEE780BE55
:01000A0000F5
:00000001FF
